:100000000C9449000C9466000C9466000C946600F5
:100010000C9466000C9466000C9466000C946600C8
:100020000C9466000C9466000C9466000C946600B8
:100030000C94A2010C9466000C9466000C9466006B
:100040000C9466000C9466000C9466000C94660098
:100050000C9466000C9466000C9466000C94660088
:100060000C9466000C9466000C9466000C94660078
:100070000C9466000C9466000C9466008D03830457
:100080006D053B06BE064E07E8070E09410A7E0BCA
:10009000340C11241FBECFEFD8E0DEBFCDBF12E07D
:1000A000A0E0B1E0E8EDF7E202C005900D92A233C6
:1000B000B107D9F722E0A2E3B2E001C01D92AE364B
:1000C000B207E1F70E94D40E0C94EA130C940000DE
:1000D000CF93DF93CDB7DEB784E290E02FEFFC0142
:1000E000208387E290E027E0FC0120838AE290E011
:1000F0002BEFFC01208387E290E027E230E0F9015A
:1001000020812068FC012083DF91CF910895CF9357
:10011000DF93CDB7DEB78FE690E02FE630E0F90150
:1001200020812D7FFC01208381E890E021E830E0F0
:10013000F9012081287FFC01208380E890E0FC0108
:10014000108281E890E021E830E0F90120812B6005
:10015000FC01208388E890E020911601309117017E
:10016000FC01318320838FE690E02FE630E0F90137
:1001700020812260FC01208381E890E021E830E0CA
:10018000F90120812360FC012083DF91CF91089544
:100190000F931F93CF93DF93CDB7DEB72C970FB696
:1001A000F894DEBF0FBECDBF69837A838B839C83B7
:1001B00088EC90E02FE0FC0120830EEC10E080E260
:1001C00091EAA7E0B0E029813A814B815C81BC01D2
:1001D000CD010E94D410DA01C9010197A109B1092A
:1001E000892F9A2FAB2FBB27F80180830DEC10E0ED
:1001F00080E291EAA7E0B0E029813A814B815C81FD
:10020000BC01CD010E94D410DA01C9018150F8016E
:10021000808380E091E090936B0280936A0280E09B
:1002200091E090936902809368022C960FB6F8943F
:10023000DEBF0FBECDBFDF91CF911F910F9108950B
:10024000CF93DF9300D01F92CDB7DEB789837B8336
:100250006A83000089EC90E0FC018081882F90E0A7
:1002600080719927892BB1F782ED90E02981FC01FB
:1002700020830F900F900F90DF91CF910895CF932F
:10028000DF9300D0CDB7DEB79A838983000089EC75
:1002900090E0FC018081882F90E080719927892B64
:1002A000B1F782ED90E0FC0180810F900F90DF911B
:1002B000CF910895CF93DF9300D0CDB7DEB79A8367
:1002C0008983E0915F02F091600280916102682F62
:1002D00070E080916202482F50E080916302282FE5
:1002E00030E08091640290916502AF2FAF93EF935D
:1002F000E72FEF936F93652F6F934F93432F4F9398
:100300002F93292F2F938F9388E191E0892F8F933B
:1003100088E191E08F930E941F118DB79EB70C96D4
:100320000FB6F894DEBF0FBECDBF8A818F9389814F
:100330008F930E941F110F900F900F900F90DF91DD
:10034000CF9108951F920F9200905F000F92112499
:100350002F938F939F93AF93BF93CF93DF93CDB79B
:10036000DEB780915B0290915C02A0915D02B0913A
:100370005E020196A11DB11D80935B0290935C0209
:10038000A0935D02B0935E0280915F029091600243
:1003900001969093600280935F0280915F0290913A
:1003A0006002883E934070F11092600210925F02EA
:1003B000809161028F5F80936102809161028C3332
:1003C00008F110926102809162028F5F8093620255
:1003D000809162028C33B0F01092620280916302CD
:1003E0008F5F8093630280916302883158F010928E
:1003F0006302809164029091650201969093650278
:1004000080936402DF91CF91BF91AF919F918F91C3
:100410002F910F9000925F000F901F901895CF932F
:10042000DF9300D01F92CDB7DEB719821DC08DEECD
:1004300090E029812295207FFC0120838EEE90E0C0
:100440009B838A8309C08A819B81FC0110828A81F7
:100450009B8101969B838A838A819B81883F91053A
:1004600090F389818F5F89838981863000F30F90B3
:100470000F900F90DF91CF910895CF93DF9300D02D
:10048000CDB7DEB78DEE90E0FC0180818A831982C2
:100490001BC08DEE90E029812295207FFC012083F6
:1004A0008FEE90E0FC018081882F90E0807C99277E
:1004B000892B39F48DEE90E02A81FC01208389811B
:1004C0000CC089818F5F89838981863010F38DEE1E
:1004D00090E02A81FC0120838FEF0F900F90DF9135
:1004E000CF910895CF93DF9300D0CDB7DEB78FEED5
:1004F00090E0FC018081882F90E0807C9927892BF7
:1005000011F48FEF1CC08EEE90E0FC018081898396
:100510008981807E8A838A81803231F08A81803429
:1005200019F08A81803A11F48A8109C089818F711A
:100530008A838A81882311F08A8101C080E00F902C
:100540000F90DF91CF910895CF93DF9300D01F924A
:10055000CDB7DEB79B838A83198210C08981882F2B
:1005600090E02A813B81820F931F2AEF30E0F9014E
:100570002081FC01208389818F5F89838981282FD5
:1005800030E08FEE90E0FC018081882F90E08F704A
:1005900099272817390714F30F900F900F90DF91C8
:1005A000CF910895CF93DF931F92CDB7DEB78983A4
:1005B00088ED90E021E0FC01208382EE90E026E0CF
:1005C000FC01208383EE90E024E0FC01208384EE94
:1005D00090E023E1FC01208381E00F90DF91CF9137
:1005E0000895CF93DF931F92CDB7DEB789838981BA
:1005F0000E94D202882311F480E00CC00E940F02F6
:1006000088ED90E028ED30E0F90120812260FC01C6
:10061000208381E00F90DF91CF910895CF93DF93F6
:10062000CDB7DEB72A970FB6F894DEBF0FBECDBFA9
:100630009A87898789859A85FC0181818C3039F573
:1006400089859A85FC0181858036D9F48DEE90E00C
:1006500029853A85F90120812295207FFC0120839C
:100660008FEE90E02FEE30E0F90120812F73FC0136
:1006700020838EEE90E0FC01108289859A85FC0132
:10068000108289859A85FC0111860C949A0D0E942E
:100690003D028C838C818F3F11F40C94930D8985DE
:1006A0009A8520E6FC01218789859A852C81FC01A9
:1006B00020838DEE90E02C812295207FFC01208309
:1006C0008EEE90E09B838A8309C08A819B81FC0126
:1006D00010828A819B8101969B838A838A819B8178
:1006E000883F910590F389859A85FC018181882F47
:1006F00090E0092E000CAA0BBB0B41E050E02AE071
:1007000030E0841B950B2817390710F40C948D0DDD
:10071000825C9F4FFC010C94F61089859A85FC0140
:100720008385882309F469C083EF90E029853A85A1
:100730002E5F3F4F2D5F3F4FF9012081422F440F25
:10074000440F440F29853A852E5F3F4F2E5F3F4F60
:10075000F9012081229526952770240FFC01208322
:1007600082EF90E029853A852E5F3F4F2E5F3F4F05
:10077000F9012081422F440F440F440F29853A8507
:100780002E5F3F4F2F5F3F4FF90120812295269525
:100790002770240FFC01208381EF90E029853A85A2
:1007A0002E5F3F4F2F5F3F4FF9012081422F440FB3
:1007B000440F440F29853A852E5F3F4FF901208170
:1007C000229526952770240FFC01208380EF90E06E
:1007D00029853A852E5F3F4FF9012081220F220F94
:1007E000220FFC0120838FEE90E02FEE30E0F90124
:1007F00020812061FC01208330C083EF90E02985B7
:100800003A852E5F3F4F2F5F3F4FF9012081422FE6
:100810004295440F407E29853A852E5F3F4FF9016E
:100820002081269526952695240FFC01208382EFB2
:1008300090E029853A852E5F3F4FF901208122956E
:10084000220F207EFC0120838FEE90E02FEE30E01F
:10085000F90120812F7EFC012083198213C08AEFC9
:1008600090E029853A85F901478150852981222F19
:1008700030E0240F351FF9012081FC01208389819C
:100880008F5F898389859A85FC0196818981891783
:1008900030F389859A85FC018285882351F080EFA9
:1008A00090E020EF30E0F90120812460FC012083FA
:1008B00009C080EF90E020EF30E0F90120812B7F2C
:1008C000FC0120838FEE90E02FEE30E0F9014081B3
:1008D00029853A85F9012681242BFC0120838FEE9E
:1008E00090E02FEE30E0F90120812F73FC0120838E
:1008F0008FEE90E02FEE30E0F90120812064FC01C2
:1009000020830C94920D89859A85FC018385882328
:1009100009F469C083EF90E029853A852E5F3F4F47
:100920002D5F3F4FF9012081422F440F440F440FA8
:1009300029853A852E5F3F4F2E5F3F4FF901208179
:10094000229526952770240FFC01208382EF90E0EA
:1009500029853A852E5F3F4F2E5F3F4FF901208159
:10096000422F440F440F440F29853A852E5F3F4F95
:100970002F5F3F4FF9012081229526952770240F84
:10098000FC01208381EF90E029853A852E5F3F4F5F
:100990002F5F3F4FF9012081422F440F440F440F36
:1009A00029853A852E5F3F4FF901208122952695B2
:1009B0002770240FFC01208380EF90E029853A8581
:1009C0002E5F3F4FF9012081220F220F220FFC01E1
:1009D00020838FEE90E02FEE30E0F901208120613E
:1009E000FC01208330C083EF90E029853A852E5F9B
:1009F0003F4F2F5F3F4FF9012081422F4295440F17
:100A0000407E29853A852E5F3F4FF901208126954A
:100A100026952695240FFC01208382EF90E02985FE
:100A20003A852E5F3F4FF90120812295220F207ECB
:100A3000FC0120838FEE90E02FEE30E0F901208161
:100A40002F7EFC012083198213C08AEF90E0298554
:100A50003A85F901478150852981222F30E0240F02
:100A6000351FF9012081FC01208389818F5F8983F3
:100A700089859A85FC0196818981891730F389855A
:100A80009A85FC01128680EF90E020EF30E0F901BA
:100A900020812B7FFC0120838FEE90E02FEE30E051
:100AA000F901408129853A85F9012681242BFC0131
:100AB00020838FEE90E02FEE30E0F90120812F733C
:100AC000FC0120838FEE90E02FEE30E0F9012081D1
:100AD0002064FC0120830C94920D89859A85FC0189
:100AE0008385882309F469C083EF90E029853A85DE
:100AF0002E5F3F4F2D5F3F4FF9012081422F440F62
:100B0000440F440F29853A852E5F3F4F2E5F3F4F9C
:100B1000F9012081229526952770240FFC0120835E
:100B200082EF90E029853A852E5F3F4F2E5F3F4F41
:100B3000F9012081422F440F440F440F29853A8543
:100B40002E5F3F4F2F5F3F4FF90120812295269561
:100B50002770240FFC01208381EF90E029853A85DE
:100B60002E5F3F4F2F5F3F4FF9012081422F440FEF
:100B7000440F440F29853A852E5F3F4FF9012081AC
:100B8000229526952770240FFC01208380EF90E0AA
:100B900029853A852E5F3F4FF9012081220F220FD0
:100BA000220FFC0120838FEE90E02FEE30E0F90160
:100BB00020812061FC01208330C083EF90E02985F3
:100BC0003A852E5F3F4F2F5F3F4FF9012081422F23
:100BD0004295440F407E29853A852E5F3F4FF901AB
:100BE0002081269526952695240FFC01208382EFEF
:100BF00090E029853A852E5F3F4FF90120812295AB
:100C0000220F207EFC0120838FEE90E02FEE30E05B
:100C1000F90120812F7EFC01208389859A8521E0BE
:100C2000FC01228780EF90E020EF30E0F901208185
:100C30002460FC0120838FEE90E02FEE30E0F9017C
:100C4000408129853A85F9012681242BFC012083E6
:100C50008FEE90E02FEE30E0F90120812F73FC0140
:100C600020838FEE90E02FEE30E0F90120812064A8
:100C7000FC01208357C71D821E821F82188627EF22
:100C800030E0CE0105960396FC018081482F440F89
:100C9000440F440FCE0105960296FC018081829597
:100CA00086958770840FF901808326EF30E0CE01AE
:100CB00005960296FC018081482F440F440F440F93
:100CC000CE0105960196FC018081829586958770FC
:100CD000840FF901808325EF30E0CE01059601965F
:100CE000FC018081482F440F440F440FCE0105962C
:100CF000FC018081829586958770840FF90180833D
:100D000084EF90E09E012B5F3F4FF9012081220F7D
:100D1000220F220FFC0120838FEE90E02FEE30E0B7
:100D2000F901408129853A85F9012681242BFC01AE
:100D3000208384EF90E024EF30E0F90120812B7FC5
:100D4000FC01208384EF90E024EF30E0F901208162
:100D50002E7FFC0120838FEE90E02FEE30E0F90132
:100D600020812F73FC0120838FEE90E02FEE30E086
:100D7000F90120812068FC012083D4C61D821E82D7
:100D80001F82188627EF30E0CE0105960396FC01FE
:100D90008081482F440F440F440FCE0105960296E0
:100DA000FC018081829586958770840FF90180838C
:100DB00026EF30E0CE0105960296FC018081482F97
:100DC000440F440F440FCE0105960196FC0180812B
:100DD000829586958770840FF901808325EF30E036
:100DE000CE0105960196FC018081482F440F440FE7
:100DF000440FCE010596FC0180818295869587700F
:100E0000840FF901808384EF90E09E012B5F3F4FB8
:100E1000F9012081220F220F220FFC0120838FEE87
:100E200090E02FEE30E0F901408129853A85F90103
:100E30002681242BFC01208389859A85FC0112865A
:100E400084EF90E024EF30E0F90120812460FC0180
:100E5000208380EF90E020EF30E0F90120812B7FAC
:100E6000FC01208384EF90E024EF30E0F901208141
:100E70002E7FFC0120838FEE90E02FEE30E0F90111
:100E800020812F73FC0120838FEE90E02FEE30E065
:100E9000F90120812068FC01208344C61D821E8246
:100EA0001F82188627EF30E0CE0105960396FC01DD
:100EB0008081482F440F440F440FCE0105960296BF
:100EC000FC018081829586958770840FF90180836B
:100ED00026EF30E0CE0105960296FC018081482F76
:100EE000440F440F440FCE0105960196FC0180810A
:100EF000829586958770840FF901808325EF30E015
:100F0000CE0105960196FC018081482F440F440FC5
:100F1000440FCE010596FC018081829586958770ED
:100F2000840FF901808384EF90E09E012B5F3F4F97
:100F3000F9012081220F220F220FFC0120838FEE66
:100F400090E02FEE30E0F901408129853A85F901E2
:100F50002681242BFC01208389859A8521E0FC01D0
:100F6000228784EF90E024EF30E0F90120812460B3
:100F7000FC01208380EF90E020EF30E0F901208138
:100F80002460FC0120838FEE90E02FEE30E0F90129
:100F900020812F7DFC01208384EF90E024EF30E05E
:100FA000F90120812E7FFC0120838FEE90E02FEE4F
:100FB00030E0F90120812F73FC0120838FEE90E057
:100FC0002FEE30E0F90120812068FC012083AAC5C2
:100FD00089859A85FC018385882309F469C083EF9C
:100FE00090E029853A852E5F3F4F2D5F3F4FF901F5
:100FF0002081422F440F440F440F29853A852E5FEC
:101000003F4F2E5F3F4FF901208122952695277093
:10101000240FFC01208382EF90E029853A852E5F22
:101020003F4F2E5F3F4FF9012081422F440F440F65
:10103000440F29853A852E5F3F4F2F5F3F4FF901BF
:101040002081229526952770240FFC01208381EFB3
:1010500090E029853A852E5F3F4F2F5F3F4FF90182
:101060002081422F440F440F440F29853A852E5F7B
:101070003F4FF9012081229526952770240FFC010E
:10108000208380EF90E029853A852E5F3F4FF9015C
:101090002081220F220F220FFC0120838FEE90E08F
:1010A0002FEE30E0F90120812061FC01208330C067
:1010B00083EF90E029853A852E5F3F4F2F5F3F4FAA
:1010C000F9012081422F4295440F407E29853A85BF
:1010D0002E5F3F4FF9012081269526952695240FF6
:1010E000FC01208382EF90E029853A852E5F3F4FF7
:1010F000F90120812295220F207EFC0120838FEEB2
:1011000090E02FEE30E0F90120812F7EFC0120835A
:101110008FEF9FEFDC018D839E83AF83B88727EF2E
:1011200030E0CE0105960396FC018081482F440FE4
:10113000440F440FCE0105960296FC0180818295F2
:1011400086958770840FF901808326EF30E0CE0109
:1011500005960296FC018081482F440F440F440FEE
:10116000CE0105960196FC01808182958695877057
:10117000840FF901808325EF30E0CE0105960196BA
:10118000FC018081482F440F440F440FCE01059687
:10119000FC018081829586958770840FF901808398
:1011A00084EF90E09E012B5F3F4FF9012081220FD9
:1011B000220F220FFC0120838FEE90E02FEE30E013
:1011C000F901408129853A85F9012681242BFC010A
:1011D000208384EF90E024EF30E0F90120812B7F21
:1011E000FC01208384EF90E024EF30E0F9012081BE
:1011F0002160FC0120838FEE90E02FEE30E0F901BA
:1012000020812F73FC0120838FEE90E02FEE30E0E1
:10121000F90120812068FC01208384C489859A8596
:10122000FC018385882309F469C083EF90E0298558
:101230003A852E5F3F4F2D5F3F4FF9012081422FAE
:10124000440F440F440F29853A852E5F3F4F2E5F90
:101250003F4FF9012081229526952770240FFC012C
:10126000208382EF90E029853A852E5F3F4F2E5FE5
:101270003F4FF9012081422F440F440F440F29852D
:101280003A852E5F3F4F2F5F3F4FF9012081229516
:1012900026952770240FFC01208381EF90E029859B
:1012A0003A852E5F3F4F2F5F3F4FF9012081422F3C
:1012B000440F440F440F29853A852E5F3F4FF901B3
:1012C0002081229526952770240FFC01208380EF32
:1012D00090E029853A852E5F3F4FF9012081220F4A
:1012E000220F220FFC0120838FEE90E02FEE30E0E2
:1012F000F90120812061FC01208330C083EF90E060
:1013000029853A852E5F3F4F2F5F3F4FF90120819E
:10131000422F4295440F407E29853A852E5F3F4FEC
:10132000F9012081269526952695240FFC0120831E
:1013300082EF90E029853A852E5F3F4FF9012081A9
:101340002295220F207EFC0120838FEE90E02FEE6D
:1013500030E0F90120812F7EFC0120838FEF9FEF89
:10136000DC018D839E83AF83B88727EF30E0CE0109
:1013700005960396FC018081482F440F440F440FCB
:10138000CE0105960296FC01808182958695877034
:10139000840FF901808326EF30E0CE010596029696
:1013A000FC018081482F440F440F440FCE01059665
:1013B0000196FC018081829586958770840FF901E2
:1013C000808325EF30E0CE0105960196FC018081F7
:1013D000482F440F440F440FCE010596FC01808135
:1013E000829586958770840FF901808384EF90E061
:1013F0009E012B5F3F4FF9012081220F220F220F08
:10140000FC0120838FEE90E02FEE30E0F901408167
:1014100029853A85F9012681242BFC0120838985C1
:101420009A85FC01128684EF90E024EF30E0F90108
:1014300020812460FC01208380EF90E020EF30E0E9
:10144000F90120812B7FFC01208384EF90E024EFC1
:1014500030E0F90120812160FC0120838FEE90E0D3
:101460002FEE30E0F90120812F73FC0120838FEEF5
:1014700090E02FEE30E0F90120812068FC0120830C
:1014800051C389859A85FC018385882309F469C045
:1014900083EF90E029853A852E5F3F4F2D5F3F4FC8
:1014A000F9012081422F440F440F440F29853A85CA
:1014B0002E5F3F4F2E5F3F4FF901208122952695E9
:1014C0002770240FFC01208382EF90E029853A8564
:1014D0002E5F3F4F2E5F3F4FF9012081422F440F77
:1014E000440F440F29853A852E5F3F4F2F5F3F4FB2
:1014F000F9012081229526952770240FFC01208375
:1015000081EF90E029853A852E5F3F4F2F5F3F4F57
:10151000F9012081422F440F440F440F29853A8559
:101520002E5F3F4FF9012081229526952770240FC9
:10153000FC01208380EF90E029853A852E5F3F4FA4
:10154000F9012081220F220F220FFC0120838FEE50
:1015500090E02FEE30E0F90120812061FC01208332
:1015600030C083EF90E029853A852E5F3F4F2F5F93
:101570003F4FF9012081422F4295440F407E29853B
:101580003A852E5F3F4FF9012081269526952695B5
:10159000240FFC01208382EF90E029853A852E5F9D
:1015A0003F4FF90120812295220F207EFC012083EC
:1015B0008FEE90E02FEE30E0F90120812F7EFC01CC
:1015C00020838FEF9FEFDC018D839E83AF83B887ED
:1015D00027EF30E0CE0105960396FC018081482F6D
:1015E000440F440F440FCE0105960296FC01808102
:1015F000829586958770840FF901808326EF30E00D
:10160000CE0105960296FC018081482F440F440FBD
:10161000440FCE0105960196FC0180818295869546
:101620008770840FF901808325EF30E0CE010596A5
:101630000196FC018081482F440F440F440FCE01D6
:101640000596FC018081829586958770840FF9014B
:10165000808384EF90E09E012B5F3F4FF901208152
:10166000220F220F220FFC0120838FEE90E02FEE3D
:1016700030E0F901408129853A85F9012681242B42
:10168000FC01208389859A8521E0FC01228784EF73
:1016900090E024EF30E0F90120812460FC012083F8
:1016A00080EF90E020EF30E0F90120812460FC0120
:1016B00020838FEE90E02FEE30E0F90120812F7D26
:1016C000FC01208384EF90E024EF30E0F9012081D9
:1016D0002160FC0120838FEE90E02FEE30E0F901D5
:1016E00020812F73FC0120838FEE90E02FEE30E0FD
:1016F000F90120812068FC01208314C2198213C0E3
:101700008AEF90E029853A85F90147815085298142
:10171000222F30E0240F351FF9012081FC012083A6
:1017200089818F5F898389859A85FC01968189816A
:10173000891730F31D821E821F82188627EF30E042
:10174000CE0105960396FC018081482F440F440F7B
:10175000440FCE0105960296FC0180818295869504
:101760008770840FF901808326EF30E0CE01059663
:101770000296FC018081482F440F440F440FCE0194
:1017800005960196FC018081829586958770840F6D
:10179000F901808325EF30E0CE0105960196FC012A
:1017A0008081482F440F440F440FCE010596FC0161
:1017B0008081829586958770840FF901808384EFFC
:1017C00090E09E012B5F3F4FF9012081220F220FF5
:1017D000220FFC0120838FEE90E02FEE30E0F90124
:1017E000408129853A85F9012681242BFC0120833B
:1017F00089859A8521E0FC01228784EF90E024EF1F
:1018000030E0F90120812460FC01208380EF90E02A
:1018100020EF30E0F90120812460FC0120838FEE6D
:1018200090E02FEE30E0F90120812062FC0120835E
:1018300084EF90E024EF30E0F90120812E7FFC015D
:1018400020838FEE90E02FEE30E0F90120812F739E
:10185000FC0120838FEE90E02FEE30E0F901208133
:101860002068FC0120835EC189859A85FC018385FF
:10187000882309F469C083EF90E029853A852E5FBB
:101880003F4F2D5F3F4FF9012081422F440F440FFE
:10189000440F29853A852E5F3F4F2E5F3F4FF90158
:1018A0002081229526952770240FFC01208382EF4A
:1018B00090E029853A852E5F3F4F2E5F3F4FF9011B
:1018C0002081422F440F440F440F29853A852E5F13
:1018D0003F4F2F5F3F4FF9012081229526952770BA
:1018E000240FFC01208381EF90E029853A852E5F4B
:1018F0003F4F2F5F3F4FF9012081422F440F440F8C
:10190000440F29853A852E5F3F4FF90120812295AA
:1019100026952770240FFC01208380EF90E0298515
:101920003A852E5F3F4FF9012081220F220F220FAF
:10193000FC0120838FEE90E02FEE30E0F901208152
:101940002061FC01208330C083EF90E029853A8537
:101950002E5F3F4F2F5F3F4FF9012081422F42956D
:10196000440F407E29853A852E5F3F4FF901208143
:10197000269526952695240FFC01208382EF90E082
:1019800029853A852E5F3F4FF90120812295220F4C
:10199000207EFC0120838FEE90E02FEE30E0F901F5
:1019A00020812F7EFC012083198213C08AEF90E0F2
:1019B00029853A85F901478150852981222F30E018
:1019C000240F351FF9012081FC01208389818F5F5D
:1019D000898389859A85FC0196818981891730F3ED
:1019E0008FEF9FEFDC018D839E83AF83B88727EF56
:1019F00030E0CE0105960396FC018081482F440F0C
:101A0000440F440FCE0105960296FC018081829519
:101A100086958770840FF901808326EF30E0CE0130
:101A200005960296FC018081482F440F440F440F15
:101A3000CE0105960196FC0180818295869587707E
:101A4000840FF901808325EF30E0CE0105960196E1
:101A5000FC018081482F440F440F440FCE010596AE
:101A6000FC018081829586958770840FF9018083BF
:101A700084EF90E09E012B5F3F4FF9012081220F00
:101A8000220F220FFC0120838FEE90E02FEE30E03A
:101A9000F901408129853A85F9012681242BFC0131
:101AA000208389859A8521E0FC01228784EF90E0DC
:101AB00024EF30E0F90120812460FC01208380EFD5
:101AC00090E020EF30E0F90120812460FC012083C8
:101AD0008FEE90E02FEE30E0F90120812062FC01D2
:101AE000208384EF90E024EF30E0F9012081216031
:101AF000FC0120838FEE90E02FEE30E0F901208191
:101B00002F73FC0120838FEE90E02FEE30E0F9017F
:101B100020812068FC01208305C089859A85FC010D
:101B20001186000007C089859A852FE1FC01218775
:101B30008FEF01C080E02A960FB6F894DEBF0FBE8B
:101B4000CDBFDF91CF910895CF93DF9300D000D028
:101B5000CDB7DEB79C838B838B819C81FC01818513
:101B60008A838A81882331F08A818F3119F08A81B2
:101B70008F3F11F482E011C18DEE90E02B813C810A
:101B8000F90120812295207FFC0120830E947202AE
:101B90008A838A81882F90E08032910589F0813292
:101BA00091051CF4892B49F0E2C08034910509F4B9
:101BB000CAC0803A910521F0DAC081E08983ECC087
:101BC0008FEE90E0FC018081282F2F708B819C810B
:101BD000FC0126838B819C81FC01878190850E947A
:101BE000A40280EF90E0FC018081882F90E0847057
:101BF00099279595879595958795282F8B819C8119
:101C0000FC0122878FEE90E0FC018081882F90E01C
:101C10008071992795958795959587959595879541
:101C200095958795892B09F454C08B819C8121E07F
:101C3000FC0123878B819C810296039623EF30E081
:101C4000F9012081269526952695FC0120838B811C
:101C50009C810296029622EF30E0F9012081422F0A
:101C600046954695469523EF30E0F901208122956F
:101C7000220F207E240FFC0120838B819C81029601
:101C8000019621EF30E0F9012081422F46954695DB
:101C9000469522EF30E0F90120812295220F207E27
:101CA000240FFC0120838B819C81029620EF30E081
:101CB000F9012081422F46954695469521EF30E067
:101CC000F90120812295220F207E240FFC01208320
:101CD00026C08B819C81FC0113868B819C8102969E
:101CE000019623EF30E0F901208122952695277097
:101CF000FC0120838B819C81029622EF30E0F90168
:101D00002081422F42954695477023EF30E0F9013C
:101D10002081220F220F220F240FFC0120838B81B0
:101D20009C812A81FC0121878FEE90E02FEE30E02C
:101D3000F90120812F73FC0120838EEE90E0FC01DD
:101D40001082198229C08B819C812A81FC01218704
:101D50008FEE90E02FEE30E0F90120812F73FC012F
:101D600020838EEE90E0FC011082198215C08B81D9
:101D70009C812A81FC0121878FEE90E02FEE30E0DC
:101D8000F90120812F73FC0120838EEE90E0FC018D
:101D9000108282E08983000089810F900F900F905C
:101DA0000F90DF91CF910895CF93DF93CDB7DEB73A
:101DB0000E9487000E94680060E07BE480E090E081
:101DC0000E94C800789480E00E94F102809358023B
:101DD00084E391E0892F8F9384E391E08F930E94B5
:101DE0001F110F900F9082E080933702809137028D
:101DF000882F90E08130910519F0029721F00AC0F8
:101E00000E940B0F07C063E271E08EE091E00E9438
:101E10005A0F0000E8CFCF93DF931F92CDB7DEB704
:101E200088E392E0909348028093470219820AC0A7
:101E30008981882F90E0885C9D4FFC011082898108
:101E40008F5F89838981883098F384E08093410291
:101E5000000080E492E00E940E038823D1F780E422
:101E600092E00E94A40D8093660280916602813008
:101E700091F0000080E492E00E94D70F809142022E
:101E800090914302A0914402B0914502892B8A2B84
:101E90008B2B41F001C0E3CF80914202909143022D
:101EA000892B21F488EC91E00E945A010F90DF9178
:101EB000CF910895CF93DF9300D000D000D0CDB75D
:101EC000DEB79C838B837E836D8382E08A83198255
:101ED00013C08981882F90E04B815C812981222F5A
:101EE00030E0240F351FF9012081875A9D4FFC01F6
:101EF000208389818F5F898399818A81981748F32C
:101F000089E592E090935402809353028D819E81E3
:101F100090934F0280934E021092570281E080937B
:101F200056028A818093520282E080934D02000023
:101F30008CE492E00E940E038823D1F78CE492E0B7
:101F40000E94A40D8093660280916602813031F078
:101F5000000080916602823039F401C0EFCF80EF3B
:101F600091E00E945A0104C08AEF91E00E945A0158
:101F700080914E0290914F02A0915002B091510277
:101F8000892B8A2B8B2B31F080914E0290914F023E
:101F9000892B21F488EC91E00E945A0126960FB615
:101FA000F894DEBF0FBECDBFDF91CF910895EF92C1
:101FB000FF920F931F93CF93DF93CDB7DEB7289790
:101FC0000FB6F894DEBF0FBECDBF9A838983898197
:101FD0009A81FC018385882309F0C5C089819A8193
:101FE000FC01828193818130934009F047C089814F
:101FF0009A81FC01878190850296FC018081882F5F
:1020000090E090933302809332028091320290915B
:102010003302382F222789819A81FC01878190859C
:102020000396FC018081882F90E0820F931F90938C
:1020300033028093320289819A81FC0187819085E5
:10204000FC018081882F90E09093350280933402C8
:102050008091340290913502382F222789819A810C
:10206000FC01878190850196FC018081882F90E09A
:10207000820F931F909335028093340289819A8155
:10208000FC01828193818031964049F489819A8153
:10209000FC0187819085FC018781809336028091C5
:1020A0003602E82FF0E08091340290913502AC01C5
:1020B0009A01ADECBCEC0E94FC109C013695279572
:1020C0003695279536952795C901880F991F9C014C
:1020D000220F331F220F331F820F931F9A01281BD9
:1020E000390B80913402909135024AE050E0BA01F8
:1020F0000E94C010CB017C0180913202909133028A
:102100004AE050E0BA010E94C0108C018091320276
:10211000909133024AE050E0BA010E94C010CB0116
:102120004F2F4F934E2F4F93432F4F932F932F2D7E
:102130002F932E2D2F93212F2F93202F2F93292F45
:102140002F938F9386E092E0892F8F9386E092E021
:102150008F930E941F118DB79EB70C960FB6F894FF
:10216000DEBF0FBECDBF28960FB6F894DEBF0FBE00
:10217000CDBFDF91CF911F910F91FF90EF90089508
:1021800097FB072E16F4009407D077FD09D00E9424
:102190000B1107FC05D03EF4909581959F4F089553
:1021A000709561957F4F0895A1E21A2EAA1BBB1B63
:1021B000FD010DC0AA1FBB1FEE1FFF1FA217B30713
:1021C000E407F50720F0A21BB30BE40BF50B661F29
:1021D000771F881F991F1A9469F7609570958095ED
:1021E00090959B01AC01BD01CF010895EE0FFF1F3B
:1021F0000590F491E02D0994A29FB001B39FC00116
:10220000A39F700D811D1124911DB29F700D811D22
:102210001124911D0895AA1BBB1B51E107C0AA1FE1
:10222000BB1FA617B70710F0A61BB70B881F991F77
:102230005A95A9F780959095BC01CD010895A0E02D
:10224000B0E0E5E2F1E10C94C313AE014B5F5F4FE8
:10225000FA0161917191AF0180916A0290916B02D4
:102260000E943511E2E00C94DF13ACE0B0E0EBE348
:10227000F1E10C94B3137C016B018A01FC0117821C
:102280001682838181FFBDC1CE0101964C01F70109
:102290009381F60193FD859193FF81916F018823CE
:1022A00009F4ABC1853239F493FD859193FF819197
:1022B0006F01853229F4B70190E00E941D13E7CF2A
:1022C000512C312C20E02032A0F48B3269F030F414
:1022D000803259F0833269F420612CC08D3239F09C
:1022E000803339F4216026C02260246023C0286036
:1022F00021C027FD27C030ED380F3A3078F426FF93
:1023000006C0FAE05F9E300D1124532E13C08AE000
:10231000389E300D1124332E20620CC08E3221F4F1
:1023200026FD6BC1206406C08C3611F4206802C003
:10233000883641F4F60193FD859193FF81916F01F9
:102340008111C1CF982F9F7D9554933028F40C5F55
:102350001F4FFFE3F9830DC0833631F0833771F0EF
:10236000833509F05BC022C0F801808189830E5F4C
:102370001F4F44244394512C540115C03801F2E0FE
:102380006F0E711CF801A080B18026FF03C0652D7F
:1023900070E002C06FEF7FEFC5012C870E9412131F
:1023A0002C0183012C852F77222E17C03801F2E0F3
:1023B0006F0E711CF801A080B18026FF03C0652D4F
:1023C00070E002C06FEF7FEFC5012C870E940713FA
:1023D0002C012C852068222E830123FC1BC0832D19
:1023E00090E048165906B0F4B70180E290E00E94F0
:1023F0001D133A94F4CFF50127FC859127FE8191B6
:102400005F01B70190E00E941D1331103A94F1E092
:102410004F1A51084114510471F7E5C0843611F088
:10242000893639F5F80127FF07C060817181828103
:1024300093810C5F1F4F08C060817181072E000CD3
:10244000880B990B0E5F1F4F2F76722E97FF09C0D6
:1024500090958095709561957F4F8F4F9F4F206825
:10246000722E2AE030E0A4010E945513A82EA8186D
:1024700044C0853729F42F7EB22E2AE030E025C0F3
:10248000F22FF97FBF2E8F36C1F018F4883579F01E
:10249000B4C0803719F0883721F0AFC02F2F2061EA
:1024A000B22EB4FE0DC08B2D8460B82E09C024FF5F
:1024B0000AC09F2F9660B92E06C028E030E005C004
:1024C00020E130E002C020E132E0F801B7FE07C0B1
:1024D00060817181828193810C5F1F4F06C0608192
:1024E000718180E090E00E5F1F4FA4010E945513A0
:1024F000A82EA818FB2DFF777F2E76FE0BC0372D58
:102500003E7FA51450F474FE0AC072FC08C0372D3B
:102510003E7E05C0BA2C372D03C0BA2C01C0B52CA5
:1025200034FF0DC0FE01EA0DF11D8081803311F4EE
:10253000397E09C032FF06C0B394B39404C0832F20
:10254000867809F0B39433FD13C030FF06C05A2CCF
:10255000B31418F4530C5B18B32CB31468F4B7011C
:1025600080E290E03C870E941D13B3943C85F5CF38
:10257000B31410F43B1801C0312C34FF12C0B70162
:1025800080E390E03C870E941D133C8532FF17C01A
:1025900031FD03C088E790E002C088E590E0B70114
:1025A0000CC0832F867859F031FF02C08BE201C046
:1025B00080E237FD8DE2B70190E00E941D13A51463
:1025C00038F4B70180E390E00E941D135A94F7CFCE
:1025D000AA94F401EA0DF11D8081B70190E00E94F8
:1025E0001D13A110F5CF332009F451CEB70180E2BD
:1025F00090E00E941D133A94F6CFF70186819781EF
:1026000002C08FEF9FEF2C96E2E10C94CF13FC01F8
:102610000590615070400110D8F7809590958E0F0D
:102620009F1F0895FC016150704001900110D8F780
:10263000809590958E0F9F1F08950F931F93CF93B2
:10264000DF93FB01238121FD03C08FEF9FEF28C0A3
:1026500022FF16C0468157812481358142175307D6
:1026600044F4A081B1819D012F5F3F4F31832083CE
:102670008C93268137812F5F3F4F3783268310C08D
:10268000EB01092F182F0084F185E02D0995892B86
:10269000E1F68E819F8101969F838E83812F902FFB
:1026A000DF91CF911F910F910895FA01AA27283049
:1026B00051F1203181F1E8946F936E7F6E5F7F4F0F
:1026C0008F4F9F4FAF4FB1E03ED0B4E03CD0670F8B
:1026D000781F891F9A1FA11D680F791F8A1F911DDE
:1026E000A11D6A0F711D811D911DA11D20D009F42E
:1026F00068943F912AE0269F11243019305D319370
:10270000DEF6CF010895462F4770405D4193B3E058
:102710000FD0C9F7F6CF462F4F70405D4A3318F0FF
:10272000495D31FD4052419302D0A9F7EACFB4E0B0
:10273000A6959795879577956795BA95C9F7009768
:102740006105710508959B01AC010A2E0694579509
:10275000479537952795BA95C9F7620F731F841F60
:10276000951FA01D08952F923F924F925F926F92F6
:102770007F928F929F92AF92BF92CF92DF92EF9211
:10278000FF920F931F93CF93DF93CDB7DEB7CA1B92
:10279000DB0B0FB6F894DEBF0FBECDBF09942A88BD
:1027A000398848885F846E847D848C849B84AA8465
:1027B000B984C884DF80EE80FD800C811B81AA81F2
:1027C000B981CE0FD11D0FB6F894DEBF0FBECDBFBD
:0827D000ED010895F894FFCF1C
:1027D800000000030000000020013F0100000B166C
:1027E800212C37424D58F9000A2530337520253001
:1027F80032753A253032753A253032753A253033FC
:102808007520200043414E20427573206D6F6E691C
:10281800746F722070726F6772616D20666F7220BC
:102828004543455420333233303020616E642034C0
:10283800323330310A0D000A456E746572207420F7
:10284800666F72207472616E736D6974206D6F6447
:1028580065000A456E746572207220666F72207278
:10286800656365697665206D6F6465000A456E74F9
:10287800657220616E797468696E6720656C73652E
:1028880020746F2072657475726E20746F2074687E
:102898006973206D656E750043414E204552524F55
:1028A800522053696D756C6174696F6E2C20627269
:1028B8006F6B65206F7574206F66206C6F6F70008A
:1028C80043414E204552524F5200547820436F6D79
:1028D800706C657465000A20253032642E256420EA
:1028E8005644432020253033642E256420416D70E2
:1028F800732020204572726F72203D20253032648B
:022908000000CD
:00000001FF
